import { Eth } from '../../../src';
import { TxJson } from '../../../src/coin/eth/iface';

export const TX_JSON =
  '{"gasLimit":"1000","gasPrice":"10","nonce":1,"chainId":31,"value":"100000","data":"0x60606040526001805460ff19169055341561001957600080fd5b604051610ef0380380610ef0833981016040528080519091019050805160031461004257600080fd5b600081805161005592916020019061005c565b50506100ea565b8280548282559060005260206000209081019282156100b3579160200282015b828111156100b35782518254600160a060020a031916600160a060020a03919091161782556020929092019160019091019061007c565b506100bf9291506100c3565b5090565b6100e791905b808211156100bf578054600160a060020a03191681556001016100c9565b90565b610df7806100f96000396000f30060606040526004361061007f5763ffffffff60e060020a6000350416630dcd7a6c81146100f45780632079fb9a146101685780632da034091461019a57806339125215146101bf5780637df73e271461026f578063a0b7967b146102a2578063a68a76cc146102c7578063abe3219c146102da578063fc0f392d146102ed575b60003411156100f2577f6e89d517057028190560dd200cf6bf792842861353d1173761dfa362e1c133f03334600036604051600160a060020a0385168152602081018490526060604082018181529082018390526080820184848082843782019150509550505050505060405180910390a15b005b34156100ff57600080fd5b6100f260048035600160a060020a03908116916024803592604435169160643591608435919060c49060a43590810190830135806020601f8201819004810201604051908101604052818152929190602084018383808284375094965061030095505050505050565b341561017357600080fd5b61017e600435610431565b604051600160a060020a03909116815260200160405180910390f35b34156101a557600080fd5b6100f2600160a060020a0360043581169060243516610459565b34156101ca57600080fd5b6100f260048035600160a060020a03169060248035919060649060443590810190830135806020601f8201819004810201604051908101604052818152929190602084018383808284375094968635966020808201359750919550606081019450604090810135860180830194503592508291601f8301819004810201905190810160405281815292919060208401838380828437509496506104d895505050505050565b341561027a57600080fd5b61028e600160a060020a0360043516610718565b604051901515815260200160405180910390f35b34156102ad57600080fd5b6102b5610776565b60405190815260200160405180910390f35b34156102d257600080fd5b61017e6107bd565b34156102e557600080fd5b61028e6107e2565b34156102f857600080fd5b6100f26107eb565b60008061030c33610718565b151561031757600080fd5b87878787876040517f455243323000000000000000000000000000000000000000000000000000000081526c01000000000000000000000000600160a060020a03968716810260058301526019820195909552929094169092026039820152604d810191909152606d810191909152608d01604051809103902091506103a0888385888861084a565b5085905080600160a060020a031663a9059cbb898960006040516020015260405160e060020a63ffffffff8516028152600160a060020a0390921660048301526024820152604401602060405180830381600087803b151561040157600080fd5b6102c65a03f1151561041257600080fd5b50505060405180519050151561042757600080fd5b5050505050505050565b600080548290811061043f57fe5b600091825260209091200154600160a060020a0316905081565b600061046433610718565b151561046f57600080fd5b5081600160a060020a038116633ef133678360405160e060020a63ffffffff8416028152600160a060020a039091166004820152602401600060405180830381600087803b15156104bf57600080fd5b6102c65a03f115156104d057600080fd5b505050505050565b6000806104e433610718565b15156104ef57600080fd5b87878787876040517f455448455200000000000000000000000000000000000000000000000000000081526c01000000000000000000000000600160a060020a038716026005820152601981018590526039810184805190602001908083835b6020831061056e5780518252601f19909201916020918201910161054f565b6001836020036101000a038019825116818451161790925250505091909101938452505060208201526040908101935091505051809103902091506105b6888385888861084a565b905087600160a060020a0316878760405180828051906020019080838360005b838110156105ee5780820151838201526020016105d6565b50505050905090810190601f16801561061b5780820380516001836020036101000a031916815260200191505b5091505060006040518083038185876187965a03f192505050151561063f57600080fd5b7f59bed9ab5d78073465dd642a9e3e76dfdb7d53bcae9d09df7d0b8f5234d5a8063382848b8b8b604051600160a060020a038088168252868116602083015260408201869052841660608201526080810183905260c060a0820181815290820183818151815260200191508051906020019080838360005b838110156106cf5780820151838201526020016106b7565b50505050905090810190601f1680156106fc5780820380516001836020036101000a031916815260200191505b5097505050505050505060405180910390a15050505050505050565b6000805b60005481101561076b5782600160a060020a031660008281548110151561073f57fe5b600091825260209091200154600160a060020a031614156107635760019150610770565b60010161071c565b600091505b50919050565b600080805b600a8110156107b45781600282600a811061079257fe5b015411156107ac57600281600a81106107a757fe5b015491505b60010161077b565b50600101919050565b60006107c7610a44565b604051809103906000f08015156107dd57600080fd5b905090565b60015460ff1681565b6107f433610718565b15156107ff57600080fd5b6001805460ff1916811790557f0909e8f76a4fd3e970f2eaef56c0ee6dfaf8b87c5b8d3f56ffce78e825a9115733604051600160a060020a03909116815260200160405180910390a1565b60008061085786866108cf565b60015490915060ff168015610872575061087087610718565b155b1561087c57600080fd5b4284101561088957600080fd5b61089283610983565b61089b81610718565b15156108a657600080fd5b33600160a060020a031681600160a060020a031614156108c557600080fd5b9695505050505050565b60008060008084516041146108e357600080fd5b602085015192506040850151915060ff6041860151169050601b8160ff16101561090b57601b015b6001868285856040516000815260200160405260006040516020015260405193845260ff90921660208085019190915260408085019290925260608401929092526080909201915160208103908084039060008661646e5a03f1151561097057600080fd5b5050602060405103519695505050505050565b60008061098f33610718565b151561099a57600080fd5b5060009050805b600a8110156109f55782600282600a81106109b857fe5b015414156109c557600080fd5b600282600a81106109d257fe5b0154600282600a81106109e157fe5b015410156109ed578091505b6001016109a1565b600282600a8110610a0257fe5b0154831015610a1057600080fd5b600282600a8110610a1d57fe5b015461271001831115610a2f57600080fd5b82600283600a8110610a3d57fe5b0155505050565b60405161037780610a558339019056006060604052341561000f57600080fd5b60008054600160a060020a033316600160a060020a031990911617905561033c8061003b6000396000f30060606040526004361061003c5763ffffffff60e060020a600035041662821de381146100eb5780633ef133671461011a5780636b9f96ea1461013b575b60008054600160a060020a0316903490366040518083838082843782019150509250505060006040518083038185876187965a03f192505050151561008057600080fd5b7f69b31548dea9b3b707b4dff357d326e3e9348b24e7a6080a218a6edeeec48f9b3334600036604051600160a060020a0385168152602081018490526060604082018181529082018390526080820184848082843782019150509550505050505060405180910390a1005b34156100f657600080fd5b6100fe61014e565b604051600160a060020a03909116815260200160405180910390f35b341561012557600080fd5b610139600160a060020a036004351661015d565b005b341561014657600080fd5b6101396102d9565b600054600160a060020a031681565b600080548190819033600160a060020a0390811691161461017d57600080fd5b83925030915082600160a060020a03166370a082318360006040516020015260405160e060020a63ffffffff8416028152600160a060020a039091166004820152602401602060405180830381600087803b15156101da57600080fd5b6102c65a03f115156101eb57600080fd5b5050506040518051915050801515610202576102d3565b60008054600160a060020a038086169263a9059cbb929091169084906040516020015260405160e060020a63ffffffff8516028152600160a060020a0390921660048301526024820152604401602060405180830381600087803b151561026857600080fd5b6102c65a03f1151561027957600080fd5b50505060405180519050151561028e57600080fd5b7f9401e4e79c19cbe2bd774cb70a94ba660e6718be1bac1298ab3b07f454a608218482604051600160a060020a03909216825260208201526040908101905180910390a15b50505050565b600054600160a060020a039081169030163160405160006040518083038185876187965a03f192505050151561030e57600080fd5b5600a165627a7a72305820a6b61178cc9f27c0f16522b572583d67a89a7cea9f0d74293c1771a8260c38650029a165627a7a72305820498b920a8626a935d3fd3ce78cdf41089ceef2ac9798b09f7f22fa74c887a0320029000000000000000000000000000000000000000000000000000000000000002000000000000000000000000000000000000000000000000000000000000000030000000000000000000000008775ed5a9f67f90a017afb46980bfdae423dd41c00000000000000000000000042ff8ce0f79b69993893cef89412a4c48b7d29af0000000000000000000000007ae2ccba98e20daa6f6271cdf97a79c0274856f7"}';

export const TX_BROADCAST =
  '0xf90fdd010a8203e88080b90f9060606040526001805460ff19169055341561001957600080fd5b604051610ef0380380610ef0833981016040528080519091019050805160031461004257600080fd5b600081805161005592916020019061005c565b50506100ea565b8280548282559060005260206000209081019282156100b3579160200282015b828111156100b35782518254600160a060020a031916600160a060020a03919091161782556020929092019160019091019061007c565b506100bf9291506100c3565b5090565b6100e791905b808211156100bf578054600160a060020a03191681556001016100c9565b90565b610df7806100f96000396000f30060606040526004361061007f5763ffffffff60e060020a6000350416630dcd7a6c81146100f45780632079fb9a146101685780632da034091461019a57806339125215146101bf5780637df73e271461026f578063a0b7967b146102a2578063a68a76cc146102c7578063abe3219c146102da578063fc0f392d146102ed575b60003411156100f2577f6e89d517057028190560dd200cf6bf792842861353d1173761dfa362e1c133f03334600036604051600160a060020a0385168152602081018490526060604082018181529082018390526080820184848082843782019150509550505050505060405180910390a15b005b34156100ff57600080fd5b6100f260048035600160a060020a03908116916024803592604435169160643591608435919060c49060a43590810190830135806020601f8201819004810201604051908101604052818152929190602084018383808284375094965061030095505050505050565b341561017357600080fd5b61017e600435610431565b604051600160a060020a03909116815260200160405180910390f35b34156101a557600080fd5b6100f2600160a060020a0360043581169060243516610459565b34156101ca57600080fd5b6100f260048035600160a060020a03169060248035919060649060443590810190830135806020601f8201819004810201604051908101604052818152929190602084018383808284375094968635966020808201359750919550606081019450604090810135860180830194503592508291601f8301819004810201905190810160405281815292919060208401838380828437509496506104d895505050505050565b341561027a57600080fd5b61028e600160a060020a0360043516610718565b604051901515815260200160405180910390f35b34156102ad57600080fd5b6102b5610776565b60405190815260200160405180910390f35b34156102d257600080fd5b61017e6107bd565b34156102e557600080fd5b61028e6107e2565b34156102f857600080fd5b6100f26107eb565b60008061030c33610718565b151561031757600080fd5b87878787876040517f455243323000000000000000000000000000000000000000000000000000000081526c01000000000000000000000000600160a060020a03968716810260058301526019820195909552929094169092026039820152604d810191909152606d810191909152608d01604051809103902091506103a0888385888861084a565b5085905080600160a060020a031663a9059cbb898960006040516020015260405160e060020a63ffffffff8516028152600160a060020a0390921660048301526024820152604401602060405180830381600087803b151561040157600080fd5b6102c65a03f1151561041257600080fd5b50505060405180519050151561042757600080fd5b5050505050505050565b600080548290811061043f57fe5b600091825260209091200154600160a060020a0316905081565b600061046433610718565b151561046f57600080fd5b5081600160a060020a038116633ef133678360405160e060020a63ffffffff8416028152600160a060020a039091166004820152602401600060405180830381600087803b15156104bf57600080fd5b6102c65a03f115156104d057600080fd5b505050505050565b6000806104e433610718565b15156104ef57600080fd5b87878787876040517f455448455200000000000000000000000000000000000000000000000000000081526c01000000000000000000000000600160a060020a038716026005820152601981018590526039810184805190602001908083835b6020831061056e5780518252601f19909201916020918201910161054f565b6001836020036101000a038019825116818451161790925250505091909101938452505060208201526040908101935091505051809103902091506105b6888385888861084a565b905087600160a060020a0316878760405180828051906020019080838360005b838110156105ee5780820151838201526020016105d6565b50505050905090810190601f16801561061b5780820380516001836020036101000a031916815260200191505b5091505060006040518083038185876187965a03f192505050151561063f57600080fd5b7f59bed9ab5d78073465dd642a9e3e76dfdb7d53bcae9d09df7d0b8f5234d5a8063382848b8b8b604051600160a060020a038088168252868116602083015260408201869052841660608201526080810183905260c060a0820181815290820183818151815260200191508051906020019080838360005b838110156106cf5780820151838201526020016106b7565b50505050905090810190601f1680156106fc5780820380516001836020036101000a031916815260200191505b5097505050505050505060405180910390a15050505050505050565b6000805b60005481101561076b5782600160a060020a031660008281548110151561073f57fe5b600091825260209091200154600160a060020a031614156107635760019150610770565b60010161071c565b600091505b50919050565b600080805b600a8110156107b45781600282600a811061079257fe5b015411156107ac57600281600a81106107a757fe5b015491505b60010161077b565b50600101919050565b60006107c7610a44565b604051809103906000f08015156107dd57600080fd5b905090565b60015460ff1681565b6107f433610718565b15156107ff57600080fd5b6001805460ff1916811790557f0909e8f76a4fd3e970f2eaef56c0ee6dfaf8b87c5b8d3f56ffce78e825a9115733604051600160a060020a03909116815260200160405180910390a1565b60008061085786866108cf565b60015490915060ff168015610872575061087087610718565b155b1561087c57600080fd5b4284101561088957600080fd5b61089283610983565b61089b81610718565b15156108a657600080fd5b33600160a060020a031681600160a060020a031614156108c557600080fd5b9695505050505050565b60008060008084516041146108e357600080fd5b602085015192506040850151915060ff6041860151169050601b8160ff16101561090b57601b015b6001868285856040516000815260200160405260006040516020015260405193845260ff90921660208085019190915260408085019290925260608401929092526080909201915160208103908084039060008661646e5a03f1151561097057600080fd5b5050602060405103519695505050505050565b60008061098f33610718565b151561099a57600080fd5b5060009050805b600a8110156109f55782600282600a81106109b857fe5b015414156109c557600080fd5b600282600a81106109d257fe5b0154600282600a81106109e157fe5b015410156109ed578091505b6001016109a1565b600282600a8110610a0257fe5b0154831015610a1057600080fd5b600282600a8110610a1d57fe5b015461271001831115610a2f57600080fd5b82600283600a8110610a3d57fe5b0155505050565b60405161037780610a558339019056006060604052341561000f57600080fd5b60008054600160a060020a033316600160a060020a031990911617905561033c8061003b6000396000f30060606040526004361061003c5763ffffffff60e060020a600035041662821de381146100eb5780633ef133671461011a5780636b9f96ea1461013b575b60008054600160a060020a0316903490366040518083838082843782019150509250505060006040518083038185876187965a03f192505050151561008057600080fd5b7f69b31548dea9b3b707b4dff357d326e3e9348b24e7a6080a218a6edeeec48f9b3334600036604051600160a060020a0385168152602081018490526060604082018181529082018390526080820184848082843782019150509550505050505060405180910390a1005b34156100f657600080fd5b6100fe61014e565b604051600160a060020a03909116815260200160405180910390f35b341561012557600080fd5b610139600160a060020a036004351661015d565b005b341561014657600080fd5b6101396102d9565b600054600160a060020a031681565b600080548190819033600160a060020a0390811691161461017d57600080fd5b83925030915082600160a060020a03166370a082318360006040516020015260405160e060020a63ffffffff8416028152600160a060020a039091166004820152602401602060405180830381600087803b15156101da57600080fd5b6102c65a03f115156101eb57600080fd5b5050506040518051915050801515610202576102d3565b60008054600160a060020a038086169263a9059cbb929091169084906040516020015260405160e060020a63ffffffff8516028152600160a060020a0390921660048301526024820152604401602060405180830381600087803b151561026857600080fd5b6102c65a03f1151561027957600080fd5b50505060405180519050151561028e57600080fd5b7f9401e4e79c19cbe2bd774cb70a94ba660e6718be1bac1298ab3b07f454a608218482604051600160a060020a03909216825260208201526040908101905180910390a15b50505050565b600054600160a060020a039081169030163160405160006040518083038185876187965a03f192505050151561030e57600080fd5b5600a165627a7a72305820a6b61178cc9f27c0f16522b572583d67a89a7cea9f0d74293c1771a8260c38650029a165627a7a72305820498b920a8626a935d3fd3ce78cdf41089ceef2ac9798b09f7f22fa74c887a0320029000000000000000000000000000000000000000000000000000000000000002000000000000000000000000000000000000000000000000000000000000000030000000000000000000000006461ec4e9db87cfe2aeec7d9b02aa264edfbf41f000000000000000000000000f10c8f42bd63d0aed3338a6b2b661bc6d9fa7c44000000000000000000000000a4b5666fb4ffea84dd848845e1114b84146de4b325a09d9620c8b0b181e31b4bacb5da65fffecb90036951b9e7eb2857a1f5646e3ea0a050d3f9eb610b8b0cba112bb5897d36f4677340379fcf571d9986ea52ea1485c3';

export const PUBLIC_KEY =
  '04614C070C6D1C18A6A2D6EE2BBBE1FF291A0ABA8ED6B55023C03BE42583AC23A743BCB5EF9DB59E14FD7025A9A5D93C6BA89EEFEB40215BF24933D4F2935D14CB';

export const PRIVATE_KEY = 'E9574834182AAC2AD777D2851762E5D5D7BEAC1F36E09D12B3944A627BE1D360';

export const VALID_ADDRESS = { address: '0x1A88Ee4Bc80BE080fC91AC472Af2F59260695060' };

export const INVALID_ADDRESS = { address: '0x7325A3F7d4f9E86AE62Cf742426078C3755730h5' };

export const EXPECTED_CONTRACT_DATA =
  '0x60606040526000600160006101000a81548160ff021916908315150217905550341561002a57600080fd5b60405161155b38038061155b833981016040528080518201919050506003815114151561005657600080fd5b806000908051906020019061006c929190610073565b5050610140565b8280548282559060005260206000209081019282156100ec579160200282015b828111156100eb5782518260006101000a81548173ffffffffffffffffffffffffffffffffffffffff021916908373ffffffffffffffffffffffffffffffffffffffff16021790555091602001919060010190610093565b5b5090506100f991906100fd565b5090565b61013d91905b8082111561013957600081816101000a81549073ffffffffffffffffffffffffffffffffffffffff021916905550600101610103565b5090565b90565b61140c8061014f6000396000f300606060405260043610610099576000357c0100000000000000000000000000000000000000000000000000000000900463ffffffff1680630dcd7a6c146101335780632079fb9a146101e95780632da034091461024c57806339125215146102a45780637df73e271461037e578063a0b7967b146103cf578063a68a76cc146103f8578063abe3219c1461044d578063fc0f392d1461047a575b6000341115610131577f6e89d517057028190560dd200cf6bf792842861353d1173761dfa362e1c133f03334600036604051808573ffffffffffffffffffffffffffffffffffffffff1673ffffffffffffffffffffffffffffffffffffffff16815260200184815260200180602001828103825284848281815260200192508082843782019150509550505050505060405180910390a15b005b341561013e57600080fd5b6101e7600480803573ffffffffffffffffffffffffffffffffffffffff1690602001909190803590602001909190803573ffffffffffffffffffffffffffffffffffffffff1690602001909190803590602001909190803590602001909190803590602001908201803590602001908080601f0160208091040260200160405190810160405280939291908181526020018383808284378201915050505050509190505061048f565b005b34156101f457600080fd5b61020a6004808035906020019091905050610668565b604051808273ffffffffffffffffffffffffffffffffffffffff1673ffffffffffffffffffffffffffffffffffffffff16815260200191505060405180910390f35b341561025757600080fd5b6102a2600480803573ffffffffffffffffffffffffffffffffffffffff1690602001909190803573ffffffffffffffffffffffffffffffffffffffff169060200190919050506106a7565b005b34156102af57600080fd5b61037c600480803573ffffffffffffffffffffffffffffffffffffffff1690602001909190803590602001909190803590602001908201803590602001908080601f0160208091040260200160405190810160405280939291908181526020018383808284378201915050505050509190803590602001909190803590602001909190803590602001908201803590602001908080601f01602080910402602001604051908101604052809392919081815260200183838082843782019150505050505091905050610773565b005b341561038957600080fd5b6103b5600480803573ffffffffffffffffffffffffffffffffffffffff16906020019091905050610a72565b604051808215151515815260200191505060405180910390f35b34156103da57600080fd5b6103e2610b16565b6040518082815260200191505060405180910390f35b341561040357600080fd5b61040b610b70565b604051808273ffffffffffffffffffffffffffffffffffffffff1673ffffffffffffffffffffffffffffffffffffffff16815260200191505060405180910390f35b341561045857600080fd5b610460610b95565b604051808215151515815260200191505060405180910390f35b341561048557600080fd5b61048d610ba8565b005b60008061049b33610a72565b15156104a657600080fd5b878787878760405180807f45524332300000000000000000000000000000000000000000000000000000008152506005018673ffffffffffffffffffffffffffffffffffffffff1673ffffffffffffffffffffffffffffffffffffffff166c010000000000000000000000000281526014018581526020018473ffffffffffffffffffffffffffffffffffffffff1673ffffffffffffffffffffffffffffffffffffffff166c0100000000000000000000000002815260140183815260200182815260200195505050505050604051809103902091506105898883858888610c3b565b508590508073ffffffffffffffffffffffffffffffffffffffff1663a9059cbb89896000604051602001526040518363ffffffff167c0100000000000000000000000000000000000000000000000000000000028152600401808373ffffffffffffffffffffffffffffffffffffffff1673ffffffffffffffffffffffffffffffffffffffff16815260200182815260200192505050602060405180830381600087803b151561063857600080fd5b6102c65a03f1151561064957600080fd5b50505060405180519050151561065e57600080fd5b5050505050505050565b60008181548110151561067757fe5b90600052602060002090016000915054906101000a900473ffffffffffffffffffffffffffffffffffffffff1681565b60006106b233610a72565b15156106bd57600080fd5b8290508073ffffffffffffffffffffffffffffffffffffffff16633ef13367836040518263ffffffff167c0100000000000000000000000000000000000000000000000000000000028152600401808273ffffffffffffffffffffffffffffffffffffffff1673ffffffffffffffffffffffffffffffffffffffff168152602001915050600060405180830381600087803b151561075a57600080fd5b6102c65a03f1151561076b57600080fd5b505050505050565b60008061077f33610a72565b151561078a57600080fd5b878787878760405180807f45544845520000000000000000000000000000000000000000000000000000008152506005018673ffffffffffffffffffffffffffffffffffffffff1673ffffffffffffffffffffffffffffffffffffffff166c0100000000000000000000000002815260140185815260200184805190602001908083835b602083101515610833578051825260208201915060208101905060208303925061080e565b6001836020036101000a038019825116818451168082178552505050505050905001838152602001828152602001955050505050506040518091039020915061087f8883858888610c3b565b90508773ffffffffffffffffffffffffffffffffffffffff16878760405180828051906020019080838360005b838110156108c75780820151818401526020810190506108ac565b50505050905090810190601f1680156108f45780820380516001836020036101000a031916815260200191505b5091505060006040518083038185876187965a03f192505050151561091857600080fd5b7f59bed9ab5d78073465dd642a9e3e76dfdb7d53bcae9d09df7d0b8f5234d5a8063382848b8b8b604051808773ffffffffffffffffffffffffffffffffffffffff1673ffffffffffffffffffffffffffffffffffffffff1681526020018673ffffffffffffffffffffffffffffffffffffffff1673ffffffffffffffffffffffffffffffffffffffff16815260200185600019166000191681526020018473ffffffffffffffffffffffffffffffffffffffff1673ffffffffffffffffffffffffffffffffffffffff16815260200183815260200180602001828103825283818151815260200191508051906020019080838360005b83811015610a29578082015181840152602081019050610a0e565b50505050905090810190601f168015610a565780820380516001836020036101000a031916815260200191505b5097505050505050505060405180910390a15050505050505050565b600080600090505b600080549050811015610b0b578273ffffffffffffffffffffffffffffffffffffffff16600082815481101515610aad57fe5b906000526020600020900160009054906101000a900473ffffffffffffffffffffffffffffffffffffffff1673ffffffffffffffffffffffffffffffffffffffff161415610afe5760019150610b10565b8080600101915050610a7a565b600091505b50919050565b6000806000809150600090505b600a811015610b655781600282600a81101515610b3c57fe5b01541115610b5857600281600a81101515610b5357fe5b015491505b8080600101915050610b23565b600182019250505090565b6000610b7a610e90565b604051809103906000f0801515610b9057600080fd5b905090565b600160009054906101000a900460ff1681565b610bb133610a72565b1515610bbc57600080fd5b60018060006101000a81548160ff0219169083151502179055507f0909e8f76a4fd3e970f2eaef56c0ee6dfaf8b87c5b8d3f56ffce78e825a9115733604051808273ffffffffffffffffffffffffffffffffffffffff1673ffffffffffffffffffffffffffffffffffffffff16815260200191505060405180910390a1565b600080610c488686610ce6565b9050600160009054906101000a900460ff168015610c6c5750610c6a87610a72565b155b15610c7657600080fd5b42841015610c8357600080fd5b610c8c83610db9565b610c9581610a72565b1515610ca057600080fd5b3373ffffffffffffffffffffffffffffffffffffffff168173ffffffffffffffffffffffffffffffffffffffff161415610cd957600080fd5b8091505095945050505050565b60008060008060418551141515610cfc57600080fd5b602085015192506040850151915060ff6041860151169050601b8160ff161015610d2757601b810190505b600186828585604051600081526020016040526000604051602001526040518085600019166000191681526020018460ff1660ff16815260200183600019166000191681526020018260001916600019168152602001945050505050602060405160208103908084039060008661646e5a03f11515610da557600080fd5b505060206040510351935050505092915050565b600080610dc533610a72565b1515610dd057600080fd5b60009150600090505b600a811015610e385782600282600a81101515610df257fe5b01541415610dff57600080fd5b600282600a81101515610e0e57fe5b0154600282600a81101515610e1f57fe5b01541015610e2b578091505b8080600101915050610dd9565b600282600a81101515610e4757fe5b0154831015610e5557600080fd5b612710600283600a81101515610e6757fe5b015401831115610e7657600080fd5b82600283600a81101515610e8657fe5b0181905550505050565b60405161054080610ea18339019056006060604052341561000f57600080fd5b336000806101000a81548173ffffffffffffffffffffffffffffffffffffffff021916908373ffffffffffffffffffffffffffffffffffffffff1602179055506104e28061005e6000396000f300606060405260043610610056576000357c0100000000000000000000000000000000000000000000000000000000900463ffffffff168062821de3146101475780633ef133671461019c5780636b9f96ea146101d5575b6000809054906101000a900473ffffffffffffffffffffffffffffffffffffffff1673ffffffffffffffffffffffffffffffffffffffff166108fc349081150290604051600060405180830381858888f1935050505015156100b757600080fd5b7f69b31548dea9b3b707b4dff357d326e3e9348b24e7a6080a218a6edeeec48f9b3334600036604051808573ffffffffffffffffffffffffffffffffffffffff1673ffffffffffffffffffffffffffffffffffffffff16815260200184815260200180602001828103825284848281815260200192508082843782019150509550505050505060405180910390a1005b341561015257600080fd5b61015a6101ea565b604051808273ffffffffffffffffffffffffffffffffffffffff1673ffffffffffffffffffffffffffffffffffffffff16815260200191505060405180910390f35b34156101a757600080fd5b6101d3600480803573ffffffffffffffffffffffffffffffffffffffff1690602001909190505061020f565b005b34156101e057600080fd5b6101e861043c565b005b6000809054906101000a900473ffffffffffffffffffffffffffffffffffffffff1681565b60008060008060009054906101000a900473ffffffffffffffffffffffffffffffffffffffff1673ffffffffffffffffffffffffffffffffffffffff163373ffffffffffffffffffffffffffffffffffffffff1614151561026f57600080fd5b8392503091508273ffffffffffffffffffffffffffffffffffffffff166370a08231836000604051602001526040518263ffffffff167c0100000000000000000000000000000000000000000000000000000000028152600401808273ffffffffffffffffffffffffffffffffffffffff1673ffffffffffffffffffffffffffffffffffffffff168152602001915050602060405180830381600087803b151561031857600080fd5b6102c65a03f1151561032957600080fd5b505050604051805190509050600081141561034357610436565b8273ffffffffffffffffffffffffffffffffffffffff1663a9059cbb6000809054906101000a900473ffffffffffffffffffffffffffffffffffffffff16836000604051602001526040518363ffffffff167c0100000000000000000000000000000000000000000000000000000000028152600401808373ffffffffffffffffffffffffffffffffffffffff1673ffffffffffffffffffffffffffffffffffffffff16815260200182815260200192505050602060405180830381600087803b151561040f57600080fd5b6102c65a03f1151561042057600080fd5b50505060405180519050151561043557600080fd5b5b50505050565b6000809054906101000a900473ffffffffffffffffffffffffffffffffffffffff1673ffffffffffffffffffffffffffffffffffffffff166108fc3073ffffffffffffffffffffffffffffffffffffffff16319081150290604051600060405180830381858888f1935050505015156104b457600080fd5b5600a165627a7a72305820088cce905e424bfe474510efe41761893e9e34b54b885b8fee546d8be88aee3c0029a165627a7a72305820827adc3ef3a179757bc33003e41070fbbfcdfc5db31275af3cb0395155cd3bbb0029000000000000000000000000000000000000000000000000000000000000002000000000000000000000000000000000000000000000000000000000000000030000000000000000000000007325a3f7d4f9e86ae62cf742426078c3755730d50000000000000000000000002fa96fca36dd9d646ac8a4e0c19b4d3a0dc7e456000000000000000000000000c37825d368ec3f50a1505542d8ffb25f7b6288f2';

export const KEYPAIR_PRV = new Eth.KeyPair({ prv: 'E9574834182AAC2AD777D2851762E5D5D7BEAC1F36E09D12B3944A627BE1D360' });

export const KEYPAIR_PUB = new Eth.KeyPair({
  pub:
    '04e5a2bbe7054f3bced0ba534a557d95a43f49c130db0e94e7eb706c62b4130aa93dede2111468531321d329761fa2b3f93c845fa271dd70a9c6c765a39777d189',
});

export const ACCOUNT_1 = '0x7325a3f7d4f9e86ae62cf742426078c3755730d5';

export const ACCOUNT_2 = '0x2fa96fca36dd9d646AC8a4e0C19b4D3a0Dc7e456';

export const ACCOUNT_3 = '0xc37825D368eC3F50a1505542d8fFB25f7b6288f2';

export const INVALID_ACCOUNT = 'invalidhash';

export const TXDATA: TxJson = {
  nonce: 1,
  to: '0xba8ea9c3729686d7db120efcfc81cd020c8dc1cb',
  value: '1000',
  chainId: 42,
  gasLimit: '12000',
  gasPrice: '10',
  data: '0x10',
};

export const SIGNED_TX =
  '0xf861010a822ee094ba8ea9c3729686d7db120efcfc81cd020c8dc1cb8203e81026a0ec0238f8f84a0afec1568204c17c1b1b6b960a3f1665891251fa551d08bd3b19a0158278582e3b0710dc0b58559508aa9ee91d4c6ce0d7bf0502e7f588f4335bbf';

export const ENCODED_TRANSACTION =
  '0xf861010a822ee094ba8ea9c3729686d7db120efcfc81cd020c8dc1cb8203e81026a0ec0238f8f84a0afec1568204c17c1b1b6b960a3f1665891251fa551d08bd3b19a0158278582e3b0710dc0b58559508aa9ee91d4c6ce0d7bf0502e7f588f4335bbf';

export const UNSIGNED_TX = '0xe1010a822ee094ba8ea9c3729686d7db120efcfc81cd020c8dc1cb8203e810808080';

export const UNSIGNED_INITIALIZATION_TX = '0xf90f9d010a8203e88080b90f9060606040526001805460ff19169055341561001957600080fd5b604051610ef0380380610ef0833981016040528080519091019050805160031461004257600080fd5b600081805161005592916020019061005c565b50506100ea565b8280548282559060005260206000209081019282156100b3579160200282015b828111156100b35782518254600160a060020a031916600160a060020a03919091161782556020929092019160019091019061007c565b506100bf9291506100c3565b5090565b6100e791905b808211156100bf578054600160a060020a03191681556001016100c9565b90565b610df7806100f96000396000f30060606040526004361061007f5763ffffffff60e060020a6000350416630dcd7a6c81146100f45780632079fb9a146101685780632da034091461019a57806339125215146101bf5780637df73e271461026f578063a0b7967b146102a2578063a68a76cc146102c7578063abe3219c146102da578063fc0f392d146102ed575b60003411156100f2577f6e89d517057028190560dd200cf6bf792842861353d1173761dfa362e1c133f03334600036604051600160a060020a0385168152602081018490526060604082018181529082018390526080820184848082843782019150509550505050505060405180910390a15b005b34156100ff57600080fd5b6100f260048035600160a060020a03908116916024803592604435169160643591608435919060c49060a43590810190830135806020601f8201819004810201604051908101604052818152929190602084018383808284375094965061030095505050505050565b341561017357600080fd5b61017e600435610431565b604051600160a060020a03909116815260200160405180910390f35b34156101a557600080fd5b6100f2600160a060020a0360043581169060243516610459565b34156101ca57600080fd5b6100f260048035600160a060020a03169060248035919060649060443590810190830135806020601f8201819004810201604051908101604052818152929190602084018383808284375094968635966020808201359750919550606081019450604090810135860180830194503592508291601f8301819004810201905190810160405281815292919060208401838380828437509496506104d895505050505050565b341561027a57600080fd5b61028e600160a060020a0360043516610718565b604051901515815260200160405180910390f35b34156102ad57600080fd5b6102b5610776565b60405190815260200160405180910390f35b34156102d257600080fd5b61017e6107bd565b34156102e557600080fd5b61028e6107e2565b34156102f857600080fd5b6100f26107eb565b60008061030c33610718565b151561031757600080fd5b87878787876040517f455243323000000000000000000000000000000000000000000000000000000081526c01000000000000000000000000600160a060020a03968716810260058301526019820195909552929094169092026039820152604d810191909152606d810191909152608d01604051809103902091506103a0888385888861084a565b5085905080600160a060020a031663a9059cbb898960006040516020015260405160e060020a63ffffffff8516028152600160a060020a0390921660048301526024820152604401602060405180830381600087803b151561040157600080fd5b6102c65a03f1151561041257600080fd5b50505060405180519050151561042757600080fd5b5050505050505050565b600080548290811061043f57fe5b600091825260209091200154600160a060020a0316905081565b600061046433610718565b151561046f57600080fd5b5081600160a060020a038116633ef133678360405160e060020a63ffffffff8416028152600160a060020a039091166004820152602401600060405180830381600087803b15156104bf57600080fd5b6102c65a03f115156104d057600080fd5b505050505050565b6000806104e433610718565b15156104ef57600080fd5b87878787876040517f455448455200000000000000000000000000000000000000000000000000000081526c01000000000000000000000000600160a060020a038716026005820152601981018590526039810184805190602001908083835b6020831061056e5780518252601f19909201916020918201910161054f565b6001836020036101000a038019825116818451161790925250505091909101938452505060208201526040908101935091505051809103902091506105b6888385888861084a565b905087600160a060020a0316878760405180828051906020019080838360005b838110156105ee5780820151838201526020016105d6565b50505050905090810190601f16801561061b5780820380516001836020036101000a031916815260200191505b5091505060006040518083038185876187965a03f192505050151561063f57600080fd5b7f59bed9ab5d78073465dd642a9e3e76dfdb7d53bcae9d09df7d0b8f5234d5a8063382848b8b8b604051600160a060020a038088168252868116602083015260408201869052841660608201526080810183905260c060a0820181815290820183818151815260200191508051906020019080838360005b838110156106cf5780820151838201526020016106b7565b50505050905090810190601f1680156106fc5780820380516001836020036101000a031916815260200191505b5097505050505050505060405180910390a15050505050505050565b6000805b60005481101561076b5782600160a060020a031660008281548110151561073f57fe5b600091825260209091200154600160a060020a031614156107635760019150610770565b60010161071c565b600091505b50919050565b600080805b600a8110156107b45781600282600a811061079257fe5b015411156107ac57600281600a81106107a757fe5b015491505b60010161077b565b50600101919050565b60006107c7610a44565b604051809103906000f08015156107dd57600080fd5b905090565b60015460ff1681565b6107f433610718565b15156107ff57600080fd5b6001805460ff1916811790557f0909e8f76a4fd3e970f2eaef56c0ee6dfaf8b87c5b8d3f56ffce78e825a9115733604051600160a060020a03909116815260200160405180910390a1565b60008061085786866108cf565b60015490915060ff168015610872575061087087610718565b155b1561087c57600080fd5b4284101561088957600080fd5b61089283610983565b61089b81610718565b15156108a657600080fd5b33600160a060020a031681600160a060020a031614156108c557600080fd5b9695505050505050565b60008060008084516041146108e357600080fd5b602085015192506040850151915060ff6041860151169050601b8160ff16101561090b57601b015b6001868285856040516000815260200160405260006040516020015260405193845260ff90921660208085019190915260408085019290925260608401929092526080909201915160208103908084039060008661646e5a03f1151561097057600080fd5b5050602060405103519695505050505050565b60008061098f33610718565b151561099a57600080fd5b5060009050805b600a8110156109f55782600282600a81106109b857fe5b015414156109c557600080fd5b600282600a81106109d257fe5b0154600282600a81106109e157fe5b015410156109ed578091505b6001016109a1565b600282600a8110610a0257fe5b0154831015610a1057600080fd5b600282600a8110610a1d57fe5b015461271001831115610a2f57600080fd5b82600283600a8110610a3d57fe5b0155505050565b60405161037780610a558339019056006060604052341561000f57600080fd5b60008054600160a060020a033316600160a060020a031990911617905561033c8061003b6000396000f30060606040526004361061003c5763ffffffff60e060020a600035041662821de381146100eb5780633ef133671461011a5780636b9f96ea1461013b575b60008054600160a060020a0316903490366040518083838082843782019150509250505060006040518083038185876187965a03f192505050151561008057600080fd5b7f69b31548dea9b3b707b4dff357d326e3e9348b24e7a6080a218a6edeeec48f9b3334600036604051600160a060020a0385168152602081018490526060604082018181529082018390526080820184848082843782019150509550505050505060405180910390a1005b34156100f657600080fd5b6100fe61014e565b604051600160a060020a03909116815260200160405180910390f35b341561012557600080fd5b610139600160a060020a036004351661015d565b005b341561014657600080fd5b6101396102d9565b600054600160a060020a031681565b600080548190819033600160a060020a0390811691161461017d57600080fd5b83925030915082600160a060020a03166370a082318360006040516020015260405160e060020a63ffffffff8416028152600160a060020a039091166004820152602401602060405180830381600087803b15156101da57600080fd5b6102c65a03f115156101eb57600080fd5b5050506040518051915050801515610202576102d3565b60008054600160a060020a038086169263a9059cbb929091169084906040516020015260405160e060020a63ffffffff8516028152600160a060020a0390921660048301526024820152604401602060405180830381600087803b151561026857600080fd5b6102c65a03f1151561027957600080fd5b50505060405180519050151561028e57600080fd5b7f9401e4e79c19cbe2bd774cb70a94ba660e6718be1bac1298ab3b07f454a608218482604051600160a060020a03909216825260208201526040908101905180910390a15b50505050565b600054600160a060020a039081169030163160405160006040518083038185876187965a03f192505050151561030e57600080fd5b5600a165627a7a72305820a6b61178cc9f27c0f16522b572583d67a89a7cea9f0d74293c1771a8260c38650029a165627a7a72305820498b920a8626a935d3fd3ce78cdf41089ceef2ac9798b09f7f22fa74c887a0320029000000000000000000000000000000000000000000000000000000000000002000000000000000000000000000000000000000000000000000000000000000030000000000000000000000006461ec4e9db87cfe2aeec7d9b02aa264edfbf41f000000000000000000000000f10c8f42bd63d0aed3338a6b2b661bc6d9fa7c44000000000000000000000000a4b5666fb4ffea84dd848845e1114b84146de4b3808080';
